:1001D9000818FEFDFBF7EFDFBF7F10083F065B4FF6
:0C01E900666D7D077F6F777C395E797151
:0D017E00C4540F2408F8E6FF12018BE4FFC3
:10018B00E4FEEEC3940874809480500FEF3392B466
:10019B00C2B2EF25E0FFD2B20E80E7C2B30000D2AD
:0101AB00B3A0
:0101AC002230
:1000E8001201FF8518A0E52212017E8519A0E522DC
:1000F80012017F851AA07F40120186851BA0E52189
:1001080012017E851CA0E52112017F851DA07F407C
:10011800120186851EA0E52012017E851FA0E5201C
:0F012800540F2408F8E6FF12018BE4FF02018B4D
:08022C001201AD1200E880FB95
:0E021E0081838587898B8D80828486888A8C77
:0901F5000720005906150403203F
:10013700C2B500C2B600D2B500E4FEEEC39408749F
:100147008094805011EF1392B7EFC313FFD2B6001C
:10015700C2B6000E80E5E4FEEEC394087480948076
:100167005011ED1392B7EDC313FDD2B600C2B6001E
:060177000E80E5C2B50098
:01017D00225F
:10008F00C2B500C2B600D2B500E4FDEDC39408744A
:10009F008094805011EF1392B7EFC313FFD2B600C5
:1000AF00C2B6000D80E500E4FDEDC39408748094A2
:1000BF0080501AA2B7E433FFC43333335480FCEEBD
:1000CF00C3134CFED2B600C2B6000D80DCC2B50021
:0800DF00D2B600C2B700AF0663
:0100E70022F6
:1001AD00E4FD7F8E120137E4FCECC3940774809458
:1001BD00805012EC90022593FF74202CF8E6FD126E
:0C01CD0001370C80E47D807F8E0201373A
:1001FF00E4FBEBC39407748094805012EB90021EC3
:0E020F0093FF12008F74202BF8A6070B80E4DB
:01021D0022BE
:03000000020003F8
:0C000300787FE4F6D8FD75812602004AE3
:10000F0002022CE493A3F8E493A34003F68001F2D9
:10001F0008DFF48029E493A3F85407240CC8C333F2
:10002F00C4540F4420C8834004F456800146F6DFC1
:10003F00E4800B01020408102040809001D9E47E77
:10004F00019360BCA3FF543F30E509541FFEE493B6
:10005F00A360010ECF54C025E060A840B8E493A37D
:10006F00FAE493A3F8E493A3C8C582C8CAC583CAA8
:10007F00F0A3C8C582C8CAC583CADFE9DEE780BE60
:0101FE000000
:00000001FF
