:0300E00001080014
:1000C50053890F758AB0758C3CC28DD28CD2A9D25A
:0200D500AF2258
:10009A00AF087E00EF64B470037590FCBE0106BF22
:1000AA0068037590F8BE0106BF69037590F0BE0239
:0B00BA0009BFD0067590FFE4F5082296
:080003001200C512009A80F8FA
:03000B000200D719
:0900D700758AB0758C3C050832F5
:0300000002000EED
:0C000E00787FE4F6D8FD758109020055EA
:10001A00020003E493A3F8E493A34003F68001F2F9
:10002A0008DFF48029E493A3F85407240CC8C333E7
:10003A00C4540F4420C8834004F456800146F6DFB6
:10004A00E4800B01020408102040809000E0E47E66
:10005A00019360BCA3FF543F30E509541FFEE493AB
:10006A00A360010ECF54C025E060A840B8E493A372
:10007A00FAE493A3F8E493A3C8C582C8CAC583CA9D
:10008A00F0A3C8C582C8CAC583CADFE9DEE780BE55
:0100E300001C
:00000001FF
