:0F016100010900010800010B00010A00010C0058
:08017F007F067ED3DEFEDFFCEB
:010187002255
:080188007FC37E8ADEFEDFFC6E
:01019000224C
:0D017100007F047ECD7DBBDDFEDEFCDFFAED
:01017E00225E
:10014E005389F0438901758AB0758C3CC28DD2A952
:03015E00D2AF22FB
:10009A00E4FCAF08FEBE030CBF8409C291C29412ED
:1000AA000188D294AF087E00BE070CBF0809C2922D
:1000BA00C294120188D294AF087E00BE0A0CBF8C8B
:1000CA0009C293C294120188D294AF087E00BE0E70
:1000DA0025BF1022E4FCECFF3395E0FEC3EF940346
:1000EA00EE64809480500DC294120171D294120170
:0600FA00710C80E2C28CD3
:0101000022DC
:1001010020950C12017F209506D28CC29080F72099
:10011100960E12017F209608C28C7590FFE4F508B7
:0101210022BB
:10013900D29712014E7590FF12009A120101A28CFA
:05014900B3929780F362
:03000B00020122CD
:10012200C0E0758AB0758C3C0509E5096414700459
:070132000508F509D0E032D9
:0300000002000EED
:0C000E00787FE4F6D8FD75810C020055E7
:10001A00020139E493A3F8E493A34003F68001F2C2
:10002A0008DFF48029E493A3F85407240CC8C333E7
:10003A00C4540F4420C8834004F456800146F6DFB6
:10004A00E4800B0102040810204080900161E47EE4
:10005A00019360BCA3FF543F30E509541FFEE493AB
:10006A00A360010ECF54C025E060A840B8E493A372
:10007A00FAE493A3F8E493A3C8C582C8CAC583CA9D
:10008A00F0A3C8C582C8CAC583CADFE9DEE780BE55
:01017000008E
:00000001FF
