:0F015100010900010800010B00010A00010C0068
:08016F007F067ED3DEFEDFFCFB
:010177002265
:080178007FC37E8ADEFEDFFC7E
:01018000225C
:0D016100007F047ECD7DBBDDFEDEFCDFFAFD
:01016E00226E
:10013E005389F0438901758AB0758C3CC28DD2A962
:03014E00D2AF220B
:10009A00E4FCE50864097009C291C294120178D29D
:1000AA0094E50864127009C292C294120178D2943B
:1000BA00E508641B7009C293C294120178D294E5D0
:1000CA000864247021FCECFF3395E0FEC3EF94032F
:1000DA00EE64809480500DC294120161D294120190
:0600EA00610C80E2C28CF3
:0100F00022ED
:1000F10020950C12016F209506D28CC29080F720BA
:10010100960E12016F209608C28C7590FFE4F508D7
:0101110022CB
:10012900D29712013E7590FF12009A1200F1A28C2B
:05013900B3929780F372
:03000B00020112DD
:10011200C0E0758AB0758C3C0509E5096414700469
:070122000508F509D0E032E9
:0300000002000EED
:0C000E00787FE4F6D8FD75810C020055E7
:10001A00020129E493A3F8E493A34003F68001F2D2
:10002A0008DFF48029E493A3F85407240CC8C333E7
:10003A00C4540F4420C8834004F456800146F6DFB6
:10004A00E4800B0102040810204080900151E47EF4
:10005A00019360BCA3FF543F30E509541FFEE493AB
:10006A00A360010ECF54C025E060A840B8E493A372
:10007A00FAE493A3F8E493A3C8C582C8CAC583CA9D
:10008A00F0A3C8C582C8CAC583CADFE9DEE780BE55
:01016000009E
:00000001FF
